:020000040800F2
:10000000780700200D1E00086D0300086F0300082C
:1000100073030008770300087B030008000000005A
:100020000000000000000000000000007F03000846
:100030008103000800000000830300088503000816
:10004000271E0008271E0008271E0008271E00087C
:10005000271E0008271E0008271E0008271E00086C
:10006000271E0008271E0008271E0008271E00085C
:10007000271E0008271E0008271E0008271E00084C
:10008000271E0008271E0008271E0008271E00083C
:10009000271E0008271E0008271E0008271E00082C
:1000A000271E0008271E0008271E0008271E00081C
:1000B000271E0008271E0008271E0008271E00080C
:1000C000271E0008271E0008271E0008271E0008FC
:1000D000271E0008831D0008271E0008271E000891
:1000E000271E0008271E0008271E0008271E0008DC
:1000F000271E0008271E0008271E0008271E0008CC
:10010000271E0008271E0008271E0008271E0008BB
:10011000271E0008271E0008271E0008271E0008AB
:10012000271E0008271E0008271E0008271E00089B
:1001300000F002F800F042F80AA090E8000C8244B7
:100140008344AAF10107DA4501D100F037F8AFF294
:10015000090EBAE80F0013F0010F18BFFB1A43F0A5
:10016000010318475448000074480000103A24BFA7
:1001700078C878C1FAD8520724BF30C830C144BF0C
:1001800004680C607047000000230024002500264E
:10019000103A28BF78C1FBD8520728BF30C148BFEA
:1001A0000B607047642902F08584782902F0BE84D0
:1001B000002070471FB51FBD10B510BD02F080FDB7
:1001C0001146FFF7F7FF00F009F802F09EFD03B4B7
:1001D000FFF7F2FF03BC01F079FD000000240025C9
:1001E0004FF4A06002F0B6FB01F006FD4FF4E130E1
:1001F00001F07BFD00F0B8F900F06EFB00F0DAF9D9
:1002000000F098FB50480268504801685048006868
:1002100000F048FC052001F02CFD93E000F094FA7A
:10022000C4B20B2C28D100250024642001F021FD4C
:100230000FE000F089FAC4B2012C0ADB0A2C08DCBA
:10024000601E05EB850100EB41050024C82001F08C
:1002500010FD0C2CEDD16420B5FBF0F03C4908609A
:1002600029463CA002F0E6FB3948006800F078FE21
:100270000A2001F0FEFC00240D2C28D100250024CA
:10028000642001F0F6FC0FE000F05EFAC4B2012C2D
:100290000ADB0A2C08DC601E05EB850100EB41053A
:1002A0000024C82001F0E5FC0E2CEDD16420B5FB44
:1002B000F0F026490860294626A002F0BBFB23483F
:1002C000006801F03BF80A2001F0D3FC00240F2C59
:1002D00028D100250024642001F0CBFC0FE000F0C1
:1002E00033FAC4B2012C0ADB0A2C08DC601E05EBD1
:1002F000850100EB41050024C82001F0BAFC102C58
:10030000EDD16420B5FBF0F00F490860294611A03B
:1003100002F090FB0C48006801F095F90A2001F00A
:10032000A8FC0024701CC6B2142E08DD00260E485E
:10033000006808B9012000E000200B490860142083
:1003400001F097FC6AE700000C0000200800002084
:1003500004000020CAE4C8EBB5C4CAFDBEDDCAC7AC
:100360003A202564200D0A0088812242704700BF90
:10037000FEE700BFFEE700BFFEE700BFFEE77047F5
:1003800070477047704700000CB500200190009046
:100390006C48006840F480306A49086000BF6948D2
:1003A000006800F4003000900198401C0190009813
:1003B00018B90198B0F5A06FF1D16248006800F457
:1003C000003010B10120009001E000200090009862
:1003D000012843D15C48006840F010005A49086089
:1003E0000846006820F0030008600846006840F0F6
:1003F0000200086053484068524948600846406817
:1004000048600846406840F480604860084640689C
:1004100020F47C1048600846406840F4E8104860CA
:100420000846006840F08070086000BF45480068DA
:1004300000F000700028F9D04248406820F0030026
:10044000404948600846406840F00200486000BFEC
:100450003C48406800F00C000828F9D10CBD10B5EC
:10046000FFF792FF10BD10B53648006840F001005C
:1004700034490860084640683449084031494860BA
:1004800008460068324908402E490860084600685E
:1004900020F4802008600846406820F4FE00486090
:1004A0004FF41F008860FFF7DAFF4FF00060294922
:1004B000086010BD10B5002100200022214B5B68B0
:1004C00003F00C0121B1042906D0082928D107E046
:1004D000214B224C236027E01F4B204C236023E05C
:1004E000184B5B6803F47010164B5B6803F48032A2
:1004F000022303EB904022B9194B4343174C23606E
:100500000DE0104B5B6803F4003323B1144B4343FD
:10051000124C236003E0104B4343104C236003E074
:100520000D4B0E4C236000BF00BF064B5B68C3F34E
:1005300003130C4CE15C094B1B68CB40074C236058
:1005400010BD000000100240002002400000FFF833
:10055000FFFFF6FE08ED00E000127A001000002018
:1005600000093D001400002008B50121242001F0FD
:1005700089FF0220ADF8000010208DF80300032051
:100580008DF802006946094801F0C0FC02210748C5
:1005900001F069FD0420ADF800006946044801F04F
:1005A000B5FC0421024801F05EFD08BD00080140D1
:1005B0000014014008B50121142001F063FF01215E
:1005C000B84801F074FD4FF40040ADF80000482039
:1005D0008DF803006946B44801F098FC2020ADF87E
:1005E000000048208DF803006946B04801F08EFCF9
:1005F0000120ADF8000028208DF803006946AA48C4
:1006000001F084FC08BD08B50121082001F03AFF83
:100610004FF47060ADF8000048208DF80300694683
:10062000A34801F073FC08BD08B50121082001F0C2
:1006300029FF4FF47040ADF8000010208DF8030042
:1006400003208DF802006946994801F05FFC4FF4E1
:100650007041974801F009FD08BD08B50121082047
:1006600001F010FF4FF47040ADF8000048208DF805
:10067000030069468E4801F049FC08BD08B5012118
:10068000082001F0FFFE4FF47060ADF8000010206C
:100690008DF8030003208DF802006946844801F0BC
:1006A00035FC4FF47061824801F0DFFC08BD10B5E5
:1006B000044614B101207F4908707E48007868B371
:1006C00020217A4801F0B5FC58B14FF4004176483A
:1006D00001F0AFFC28B10121734801F0AAFC012808
:1006E0001CD10A2001F0C5FA0020724908702021AF
:1006F0006E4801F09EFC08B9012010BD4FF4004186
:10070000694801F096FC08B90220F6E70121664825
:1007100001F08FFC012815D10320EEE7202163486A
:1007200001F087FC01280DD1C1035F4801F081FC75
:10073000012807D101215C4801F07BFC10B90120A0
:100740005C4908700020D8E770B500240025002619
:10075000FFF759FFFFF768FF4FF48071544801F02D
:1007600068FC60B9142001F084FA4FF4807150489D
:1007700001F05FFC18B901244FA002F05BF94FF4BF
:1007800000714B4801F055FC60B9142001F071FA7A
:100790004FF40071464801F04CFC18B9022447A000
:1007A00002F048F94FF48061414801F042FC60B921
:1007B000142001F05EFA4FF480613D4801F039FCED
:1007C00018B903243EA002F035F94FF4006138480F
:1007D00001F02FFC60B9142001F04BFA4FF40061D6
:1007E000334801F026FC18B9042436A002F022F99F
:1007F000FFF744FFFFF731FF4FF480512C4801F021
:1008000018FC60B9142001F034FA4FF480512848E4
:1008100001F00FFC18B901252BA002F00BF94FF4E1
:100820000051234801F005FC60B9142001F021FAC1
:100830004FF400511E4801F0FCFB18B9022523A01B
:1008400002F0F8F84FF48041194801F0F2FB60B96A
:10085000142001F00EFA4FF48041154801F0E9FB35
:1008600018B903251AA002F0E5F84FF4004110482A
:1008700001F0DFFB60B9142001F0FBF94FF40041F7
:100880000B4801F0D6FB18B9042512A002F0D2F8EB
:100890001CB115B1601E05EB800600240025304612
:1008A00070BD00000002300000080140001001404F
:1008B000000C014024000020610D0A00620D0A00B6
:1008C000630D0A00640D0A00310D0A00320D0A00A2
:1008D000330D0A00340D0A0008B50121202001F073
:1008E000D1FD4FF48070ADF8000003208DF80200B8
:1008F00018208DF8030069460D4801F007FB06201B
:1009000001F0FBFD08BD08B50121202001F0BAFD72
:100910004FF48070ADF8000003208DF80200042031
:100920008DF803006946024801F0F0FA08BD0000A6
:100930000008014010B501F009F810BD70B504467B
:100940000D4601F01DF8CA2001F0E0F801F059F859
:1009500004F18001C8B201F0D9F801F052F828463C
:1009600001F0D4F801F04DF801F02BF80A2001F065
:1009700080F970BD70B50546002601F001F8CA2067
:1009800001F0C4F801F03DF805F18004E11704EB33
:1009900011610912A4EB0121C8B201F0B7F801F00E
:1009A00030F800F0EDFFCB2001F0B0F801F029F8AD
:1009B000002001F0DBF8064601F066F801F001F8CE
:1009C000314634A002F036F8304670BD2DE9F041D2
:1009D00006460C4600F0D4FFCA2001F097F801F05B
:1009E00010F806F18005E91705EB11610912A5EB76
:1009F0000121C8B201F08AF801F003F800F0C0FF4D
:100A0000CB2001F083F800F0FCFF002001F0AEF8ED
:100A100007460AE0002001F0A9F804F8010B21784C
:100A20001FA002F007F8781EC7B2002FF2D100F025
:100A3000C8FFBDE8F0812DE9F04104460F46154698
:100A400000F09EFFCA2001F061F800F0DAFF2646B0
:100A5000E11704EB11610912A4EB0121C8B201F006
:100A600055F800F0CEFF284601F050F800F0C9FF1D
:100A700006E0C5F10801785C01F048F800F0C1FF1C
:100A80002800A5F10101CDB2F3D100F09AFFBDE835
:100A9000F0810000797979793A202564200D0A00E7
:100AA000257800002DE9F74F96B083460120149079
:100AB000139012905D4600200C9006E01498401CA4
:100AC00080B2149014980BFB00F5FE488542F5D3D4
:100AD00029E040F6FF7419E040F2FF1011900DE09C
:100AE000F948006860431199B0FBF1F0A84202D1C7
:100AF00001200C9005E01198401E119011980028DB
:100B0000EED100BF0C9800B102E0641E002CE3D1CE
:100B100000BF0C9800B109E01498401C80B21490FA
:100B200014980BFB00F5E9488542D2D900BF0C9818
:100B300010B919B0BDE8F08F00204FF0804102F0ED
:100B400075F9CDE90801119803F0E4FACDE9020145
:100B5000204603F0DFFACDE90001DDE9022303F0CE
:100B6000D1F8CDE9040102F061F9CDE90601DDE932
:100B7000082303F0C7F8CDE90A0103F057FAC0F1E2
:100B80000409B9F1000F01DA4FF00009119803F0E0
:100B9000C1FACDE90801484603F0A5FA02460B4622
:100BA000CDE9000100204FF0804102F0EDFACDE9DF
:100BB0000401204603F0AEFACDE90201DDE9042389
:100BC00003F0F8FACDE90601DDE9082303F09AF80D
:100BD000CDE90A0103F02AFA0646119901FB06F055
:100BE00003F098FACDE90801484603F07CFA024682
:100BF0000B46CDE9000100204FF0804102F0C4FA1D
:100C0000CDE90401204603F085FACDE90201DDE9D2
:100C1000042303F0CFFACDE90601DDE9082303F050
:100C2000EFFCCDE90A0103F031FA0746A8488542F6
:100C300002D24FF0000A13E0A548854205D3A5482B
:100C4000854202D24FF0010A0AE0A248854205D34C
:100C5000A148854202D24FF0020A01E04FF0030A98
:100C600000209E490860B5FBFBF81798B5FBF0F033
:100C700080B213901898B5FBF0F080B212901298E1
:100C800000904246294696A0139B01F0D3FE4B46A6
:100C90002246CDE901680097A1A0119901F0CAFE92
:100CA000BBF5487F7ED3FFF745FE0A2000F0E1FF49
:100CB000C8F30120B430C1B20220FFF73FFE08F0B4
:100CC000FF010320FFF73AFE02210420FFF736FE62
:100CD00000210520FFF732FE40210620FFF72EFEFF
:100CE00000211220FFF72AFE01211320FFF726FE24
:100CF0006D211420FFF722FE02211520FFF71EFEB2
:100D0000139800F07F011620FFF718FE129800F0EC
:100D10007F011720FFF712FEC4F307101090C7F3EE
:100D2000421000EB0410C0B20F90C6F3C20000EBFB
:100D3000C700C0B20E90700109F0070100EB8100FE
:100D40000AF003010844C0B20D9018201099FFF773
:100D5000F5FD19200F99FFF7F1FD1A200E99FFF705
:100D6000EDFD1B200D99FFF7E9FDE1B21C20FFF717
:100D7000E5FD07F0F00000EB0410C1B21D20FFF705
:100D8000DDFD07F00F0006F0F0021044C1B21E2096
:100D9000FFF7D4FD700109F0070200EB82000AF0B2
:100DA000030200E008E01044C1B21F20FFF7C6FDB7
:100DB00001204A49086084E00A20B8FBF0F8FFF7F8
:100DC000B9FD0A2000F055FFC8F3012000F13401FD
:100DD0000220FFF7B3FD08F0FF010320FFF7AEFD8F
:100DE00002210420FFF7AAFD00210520FFF7A6FD40
:100DF00040210620FFF7A2FD00211220FFF79EFDF3
:100E000001211320FFF79AFDED211420FFF796FD35
:100E100002211520FFF792FD00211620FFF78EFD1D
:100E200000211720FFF78AFDC4F307101090C7F3C5
:100E3000421000EB0410C0B20F90C6F3C20000EBEA
:100E4000C700C0B20E90700109F0070100EB8100ED
:100E50000AF003010844C0B20D9018201099FFF762
:100E60006DFD19200F99FFF769FD1A200E99FFF704
:100E700065FD1B200D99FFF761FDE1B21C20FFF716
:100E80005DFD07F0F00000EB0410C1B21D20FFF77C
:100E900055FD07F00F0006F0F0021044C1B21E200D
:100EA000FFF74CFD700109F0070200EB82000AF029
:100EB00003021044C1B21F20FFF740FD0120074983
:100EC00008604BE000350C0028000020601823006B
:100ED000D012130060E31600F0B31A00840121421F
:100EE0004676636F203D202564202E2E2E2E205026
:100EF000646976203D202564202E2E2E202050640B
:100F0000697632203D202564202E2E2E20506469E3
:100F10007633203D202564202E2E2E0D0A00000061
:100F20004D203D2025642E2E2E4E203D2025642E62
:100F30002E2E2E50203D2025642E2E2E2E52203D6A
:100F40002025642E2E2E51203D2025642E2E2E503D
:100F5000646976203D2025640D0A000000BFE8E5A5
:100F60002DE9F04F93B08346012012905F46002098
:100F70000C9006E01298401C80B2129012980BFB65
:100F800000F7F9488742F5D329E040F6FF7419E0ED
:100F900040F2FF1011900DE0F44800686043119991
:100FA000B0FBF1F0B84202D101200C9005E011989D
:100FB000401E119011980028EED100BF0C9800B18E
:100FC00002E0641E002CE3D100BF0C9800B109E0E0
:100FD0001298401C80B2129012980BFB00F7E44864
:100FE0008742D2D900BF0C9810B913B0BDE8F08F7A
:100FF00000204FF0804101F019FFCDE90801119860
:1010000003F088F8CDE90201204603F083F8CDE92A
:101010000001DDE9022302F075FECDE9040101F0D3
:1010200005FFCDE90601DDE9082302F06BFECDE9FD
:101030000A0102F0FBFFC0F10409B9F1000F01DA67
:101040004FF00009119803F065F8CDE90801484612
:1010500003F049F802460B46CDE9000100204FF0AD
:10106000804102F091F8CDE90401204603F052F8E6
:10107000CDE90201DDE9042303F09CF8CDE9060186
:10108000DDE9082302F03EFECDE90A0102F0CEFFC1
:101090000546119901FB05F003F03CF8CDE9080184
:1010A000484603F020F802460B46CDE90001002037
:1010B0004FF0804102F068F8CDE90401204603F0CA
:1010C00029F8CDE90201DDE9042303F073F8CDE945
:1010D0000601DDE9082303F093FACDE90A0102F0E5
:1010E000D5FF0646A348874202D24FF0000A13E01C
:1010F000A048874205D3A048874202D24FF0010A98
:101100000AE09D48874205D39C48874202D24FF0AF
:10111000020A01E04FF0030A002099490860B7FB7A
:10112000FBF84246394697A001F084FC4B46224624
:10113000CDE901580096AFF21820119901F07AFC20
:10114000BBF5487F7BD3FFF7F5FB0A2000F091FD4C
:10115000C8F30120B430C1B20220FFF7EFFB08F062
:10116000FF010320FFF7EAFB02210420FFF7E6FB63
:1011700000210520FFF7E2FB40210620FFF7DEFB00
:1011800000211220FFF7DAFB01211320FFF7D6FB25
:101190006D211420FFF7D2FB02211520FFF7CEFBB3
:1011A000C4F307101090C6F3421000EB0410C0B255
:1011B0000F90C5F3C20000EBC600C0B20E906801EC
:1011C00009F0070100EB81000AF003010844C0B2F6
:1011D0000D9018201099FFF7B1FB19200F99FFF718
:1011E000ADFB1A200E99FFF7A9FB1B200D99FFF705
:1011F000A5FBE1B21C20FFF7A1FB06F0F00000EB1D
:101200000410C1B21D20FFF799FB06F00F0005F096
:10121000F0021044C1B21E20FFF790FB680109F0F4
:10122000070200EB82000AF003021044C1B21F2043
:10123000FFF784FB0120524908607DE0FFE70A20A8
:10124000B8FBF0F8FFF776FB0A2000F012FDC8F3B8
:10125000012000F134010220FFF770FB08F0FF01CC
:101260000320FFF76BFB02210420FFF767FB00213F
:101270000520FFF763FB40210620FFF75FFB0021FD
:101280001220FFF75BFB01211320FFF757FBED2135
:101290001420FFF753FB02211520FFF74FFBC4F387
:1012A00007101090C6F3421000EB0410C0B20F906C
:1012B000C5F3C20000EBC600C0B20E90680109F091
:1012C000070100EB81000AF003010844C0B20D9051
:1012D00018201099FFF732FB19200F99FFF72EFB0A
:1012E0001A200E99FFF72AFB1B200D99FFF726FB0A
:1012F000E1B21C20FFF722FB06F0F00000EB041027
:10130000C1B21D20FFF71AFB06F00F0005F0F00236
:101310001044C1B21E20FFF711FB680109F007025B
:1013200000EB82000AF003021044C1B21F20FFF755
:1013300005FB01201249086000BF56E62DE9F04F79
:1013400093B08346012012905C4600200C9006E08A
:101350001298401C80B2129012980BFB00F40248C5
:101360008442F5D345E0000000350C002800002041
:1013700060182300D012130060E31600F0B31A00C7
:10138000840121424676636F203D202564202E2E65
:101390002E2E2050646976203D20256420202E2E9C
:1013A0002E0D0A0040F6FF7516E040F2FF180BE024
:1013B000FE4800686843B0FBF8F0A04202D101206B
:1013C0000C9004E0A8F10108B8F1000FF0D100BFC3
:1013D0000C9800B102E06D1E002DE6D100BF0C9804
:1013E00000B109E01298401C80B2129012980BFBD9
:1013F00000F4EF488442D5D900BF0C9810B913B05F
:10140000BDE8F08F00204FF0804101F00FFDCDE9E5
:101410000801404602F07EFECDE90201284602F0B6
:1014200079FECDE90001DDE9022302F06BFCCDE994
:10143000040101F0FBFCCDE90601DDE9082302F01F
:1014400061FCCDE90A0102F0F1FDC0F10409B9F136
:10145000000F01DA4FF00009404602F05BFECDE9D3
:101460000801484602F03FFE02460B46CDE9000166
:1014700000204FF0804101F087FECDE904012846AD
:1014800002F048FECDE90201DDE9042302F092FEFC
:10149000CDE90601DDE9082302F034FCCDE90A01BB
:1014A00002F0C4FD064608FB06F002F033FECDE96B
:1014B0000801484602F017FE02460B46CDE900013E
:1014C00000204FF0804101F05FFECDE90401284685
:1014D00002F020FECDE90201DDE9042302F06AFEFC
:1014E000CDE90601DDE9082303F08AF8CDE90A0118
:1014F00002F0CCFD0746AF48844202D24FF0000A0A
:1015000013E0AC48844205D3AB48844202D24FF08A
:10151000010A0AE0A848844205D3A848844202D2BE
:101520004FF0020A01E04FF0030A0020A4490860CE
:10153000B4FBFBF011902146AFF2B810119A01F004
:1015400079FA11984B462A464146CDE90076029039
:10155000AFF2346001F06EFAFFF7ECF90A2000F008
:1015600088FB02210420FFF7E9F900210520FFF79D
:10157000E5F940210620FFF7E1F900211220FFF7ED
:10158000DDF901211320FFF7D9F96D211420FFF7B0
:10159000D5F902211520FFF7D1F9119800F07F014C
:1015A0001620FFF7CBF9C5F307101090C7F34210D0
:1015B00000EB0510C0B20F90C6F3C20000EBC700ED
:1015C000C0B20E90700109F0070100EB81000AF033
:1015D00003010844C0B20D9018201099FFF7AEF92E
:1015E00019200F99FFF7AAF91A200E99FFF7A6F90B
:1015F0001B200D99FFF7A2F9E9B21C20FFF79EF915
:1016000007F0F00000EB0510C1B21D20FFF796F9BE
:1016100007F00F0006F0F0021044C1B21E20FFF7E1
:101620008DF9700109F0070200EB82000AF0030255
:101630001044C1B21F20FFF781F901206149C1F8B0
:10164000840100BFDBE62DE9F04F93B08346012013
:1016500012905C4600200C9006E01298401C80B26C
:10166000129012980BFB00F457488442F5D326E001
:1016700040F6FF7516E040F2FF180BE04B4800689B
:101680006843B0FBF8F0A04202D101200C9004E0C6
:10169000A8F10108B8F1000FF0D100BF0C9800B11B
:1016A00002E06D1E002DE6D100BF0C9800B109E0EC
:1016B0001298401C80B2129012980BFB00F43C4828
:1016C0008442D5D900BF0C9810B913B0BDE8F08F93
:1016D00000204FF0804101F0A9FBCDE90801404610
:1016E00002F018FDCDE90201284602F013FDCDE914
:1016F0000001DDE9022302F005FBCDE9040101F060
:1017000095FBCDE90601DDE9082302F0FBFACDE9FE
:101710000A0102F08BFCC0F10409B9F1000F01DAF3
:101720004FF00009404602F0F5FCCDE908014846BB
:1017300002F0D9FC02460B46CDE9000100204FF033
:10174000804101F021FDCDE90401284602F0E2FCD0
:10175000CDE90201DDE9042302F02CFDCDE906010B
:10176000DDE9082302F0CEFACDE90A0102F05EFCC1
:10177000064608FB06F002F0CDFCCDE9080148461C
:1017800002F0B1FC02460B46CDE9000100204FF00B
:10179000804101F0F9FCCDE90401284602F0BAFCD1
:1017A000CDE90201DDE9042310E00000280000205B
:1017B00060182300D012130060E31600F0B31A0083
:1017C000840121420000214200350C0002F0F2FCAD
:1017D000CDE90601DDE9082302F012FFCDE90A0197
:1017E00002F054FC07465448844202D24FF0000AEB
:1017F00013E05148844205D35048844202D24FF04E
:10180000010A0AE04D48844205D34D48844202D281
:101810004FF0020A01E04FF0030A00204949086036
:10182000B4FBFBF011902146AFF2A840119A01F0F1
:1018300001F911984B462A464146CDE900760290BF
:10184000AFF6241001F0F6F8FFF774F80A2000F064
:1018500010FA02210420FFF771F800210520FFF79C
:101860006DF840210620FFF769F800211220FFF7EC
:1018700065F801211320FFF761F86D211420FFF7AF
:101880005DF802211520FFF759F8119800F07F014B
:101890001720FFF753F8C5F307101090C7F3421055
:1018A00000EB0510C0B20F90C6F3C20000EBC700FA
:1018B000C0B20E90700109F0070100EB81000AF040
:1018C00003010844C0B20D9018201099FFF736F8B4
:1018D00019200F99FFF732F81A200E99FFF72EF80A
:1018E0001B200D99FFF72AF8E9B21C20FFF726F814
:1018F00007F0F00000EB0510C1B21D20FFF71EF845
:1019000007F00F0006F0F0021044C1B21E20FFF7EE
:1019100015F8700109F0070200EB82000AF00302DB
:101920001044C1B21F20FFF709F801200649C1F891
:10193000840100BFC9E60000D012130060E3160066
:10194000F0B31A00840121420000214208B50121B0
:10195000102000F097FD4FF4C050ADF800001020AB
:101960008DF8030003208DF802006946994800F0C5
:10197000CDFA0120984908609849C1F8AC0108BD2A
:1019800010B59448406820F4704092494860084679
:10199000406840F44050486001208F4908608F49FA
:1019A000C1F8AC01062000F040F900208A49091F67
:1019B0000860052000F039F900208849C1F8B0011D
:1019C00010BD10B58348406820F4704081494860DC
:1019D0000846406840F44050486000207E49086056
:1019E0007E49C1F8AC01042000F01FF901207A49BA
:1019F0000860062000F019F901207849C1F8AC010F
:101A000010BD10B500247348406820F4704071493F
:101A100048600846406840F40040486001206E4934
:101A2000091F086000F001F901206C49C1F8B001FC
:101A300000F0FBF81AE0601CC4B2642C16D1002040
:101A40006549843908606348406820F47040614902
:101A500048600846406840F44050486000206049B3
:101A6000C1F888015FA000F0E5FF04E05A4884381F
:101A700000680028DFD100BF00205749091F086017
:101A80005649C1F8B00110BD10B500205249086098
:101A90005048406820F470404E494860084640680D
:101AA00040F44050486000204C49C1F8AC01062089
:101AB00000F0BBF8012048490860062000F0B5F8A6
:101AC00000204649C1F8B00110BD10B500204249C0
:101AD00008604048406820F470403E49486008462D
:101AE000406840F44050486001203C49C1F8AC01D6
:101AF000062000F09AF8012037490860062000F01F
:101B000094F800203549C1F8B00110BD70B5044605
:101B10003048406820F470402E49486008464068CC
:101B200040F44050486000202B490860052000F038
:101B30007CF8002517E0E0092749091F08606006C6
:101B4000040E032000F071F801202449C1F8B0010F
:101B5000052000F06AF800201F490860022000F00C
:101B600064F8681CC5B2082DE5DB70BD70B506468B
:101B700000241848406820F4704016494860084620
:101B8000406840F400404860002013490860002588
:101B90001BE0032000F049F801200F4908600220F3
:101BA00000F043F86006040E0C48D0F82C0108B190
:101BB000601CC4B2032000F038F800200649086019
:101BC000022000F032F8681CC5B2082DE1DB204687
:101BD00070BD000000100140B0012242000022420E
:101BE00000802242526573706F6E73652066616972
:101BF0006C64200D0A00000010B56FF0040000F0C6
:101C0000F8FE2E4800682E49B0FBF1F02D4908700F
:101C10000846007800EB4001C1EBC0104FF6FF71A1
:101C200001EAC0002849088010BD0146254A127803
:101C30004A434FF0E0235A6100229A611A46126922
:101C400042F001021A6100BF4FF0E022106900F07B
:101C500001021AB100F48032002AF5D04FF0E022E0
:101C6000126922F001024FF0E0231A6100229A610A
:101C700070470146144A12884A434FF0E0235A61E4
:101C800000229A611A46126942F001021A6100BFED
:101C90004FF0E022106900F001021AB100F4803226
:101CA000002AF5D04FF0E022126922F001024FF035
:101CB000E0231A6100229A617047000010000020A2
:101CC00000127A002C0000202E000020014600BFE8
:101CD000704700BF494A128802F04002002AF9D03A
:101CE000C2B2464B1B1D1A80704710B586B0044621
:101CF000012144F2040000F0C5FB4FF40070ADF880
:101D0000140003208DF8160018208DF8170005A97F
:101D10003B4800F0FBF84FF48060ADF8140004205D
:101D20008DF8170005A9364800F0F0F825208DF849
:101D3000000003208DF801008DF8020001208DF8CD
:101D40000300684600F00BFE01940020ADF8080087
:101D5000ADF80A00ADF80C00ADF810000C20ADF89D
:101D60000E0001A9254800F034FC012240F2255163
:101D7000224800F0C6FC0121204800F0B6FC06B065
:101D800010BD10B540F225511C4800F09FFD10B366
:101D90001A4800F01BFDC4B21A48008800F4004045
:101DA000C8B91848008800F4804060B10A2C03D0FC
:101DB00000201449088020E01248008840F40040C8
:101DC0001049088019E00D2C06D10E48008840F417
:101DD00080400C49088010E00A480088C0F30D00DC
:101DE00009490C5407480088401C064908800846E9
:101DF0000088C72801DD0020088010BD00380140A0
:101E000000080140340000204C00002009488047B1
:101E100009480047FEE7FEE7FEE7FEE7FEE7FEE7CC
:101E2000FEE7FEE7FEE7FEE704480549054A064BE4
:101E300070470000670400083101000878010020A5
:101E400078070020780300207803002010B50446AE
:101E5000CC48844208D10121042000F02DFB002150
:101E6000042000F029FB46E0C748844208D1012144
:101E7000082000F021FB0021082000F01DFB3AE0C3
:101E8000C248844208D10121102000F015FB002136
:101E9000102000F011FB2EE0BD48844208D1012142
:101EA000202000F009FB0021202000F005FB22E0AB
:101EB000B848844208D10121402000F0FDFA0021F9
:101EC000402000F0F9FA16E0B348844208D101211D
:101ED000802000F0F1FA0021802000F0EDFA0AE005
:101EE000AE48844207D10121801500F0E5FA0021B7
:101EF000A01500F0E1FA10BD10B50121084600F070
:101F0000DBFA0021012000F0D7FA10BD2DE9F041E5
:101F1000024600250026002000230024002791F817
:101F200003C00CF00F0591F803C00CF0100CBCF1CD
:101F3000000F03D091F802C04CEA050591F800C0EB
:101F4000BCF1000F31D0146800202BE04FF0010CE1
:101F50000CFA00F3B1F800C00CEA03069E4220D14F
:101F600083004FF00F0C0CFA03F7BC4305FA03FC97
:101F70004CEA040491F803C0BCF1280F06D14FF0DD
:101F8000010C0CFA00FCC2F814C00AE091F803C07E
:101F9000BCF1480F05D14FF0010C0CFA00FCC2F85F
:101FA00010C0401C0828D1D31460B1F800C0BCF1A7
:101FB000FF0F34DD546800202EE000F1080C4FF0D4
:101FC000010808FA0CF3B1F800C00CEA03069E42BF
:101FD00021D183004FF00F0C0CFA03F7BC4305FA34
:101FE00003FC4CEA040491F803C0BCF1280F05D1AE
:101FF00000F1080C08FA0CF8C2F8148091F803C03C
:10200000BCF1480F07D100F1080C4FF0010808FAA5
:102010000CF8C2F81080401C0828CED35460BDE8EC
:10202000F0814FF6FF710180022181700421C1709F
:1020300070470246002093680B400BB1012000E07E
:10204000002070470146886880B270470246002031
:10205000D3680B400BB1012000E00020704701461F
:10206000C86880B2704701617047416170470AB12A
:10207000016100E041617047C16070474FF48032F8
:102080000A43826181618261826982697047024686
:102090000020434B18684FF68073184040EA021046
:1020A00008433F4B186070473E49C8617047F0B520
:1020B0000A46002300240021002500F00046B6F166
:1020C000004F02D1364EF16901E0354E7168C0F320
:1020D000034583B200F44016B6F5401F08D121F045
:1020E00070612F4E766826F070662D4F7E6012E08C
:1020F00000F48016B6F5801F06D1032606FA05F413
:10210000A14341F0706106E0460D360103FA06F680
:10211000B14341F0706122B1460D360103FA06F673
:10212000314300F00046B6F1004F02D11C4EF16180
:1021300001E01B4E7160F0BD30B500228B071C0F13
:102140000F2303FA04F2164B08338C1053F8243093
:102150009343134C08348D1044F8253023468C10DB
:1021600053F824308C07240F00FA04F423430C4C5A
:1021700008348D1044F8253030BD0A49DC31086040
:102180007047000000080140000C014000100140B1
:102190000014014000180140001C014000200140D3
:1021A0000000014000002042DF48006840F00100CC
:1021B000DD49086008464068DC490840DA49486063
:1021C00008460068DA490840D749086008460068B0
:1021D00020F4802008600846406820F4FE00486033
:1021E0004FF41F0088607047CF49096821F480319F
:1021F000CD4A11601146096821F480211160B0F5C3
:10220000803F03D0B0F5802F0ED106E0C6490968A3
:1022100041F48031C44A116007E0C349096841F4C0
:10222000A021C14A116000E000BF00BF704710B597
:1022300001460022002300204A11012A02D1BA4C93
:10224000236806E0022A02D1B74C236A01E0B64CAB
:10225000636A01F01F02012494401C400CB101206C
:1022600000E0002010BD38B50020009000240025BB
:1022700000BF3120FFF7DBFF05460098401C0090AF
:102280000098B0F5A06F01D0002DF2D03120FFF7FB
:10229000CEFF08B1012400E00024204638BD0146ED
:1022A0000020A14A106820F0F80040EAC100106048
:1022B0007047A04908607047024600209A4B586852
:1022C00020F47C1042EA01031843974B5860704792
:1022D00098490866704701460020934A506820F0EC
:1022E00003000843506070478F48406800F00C00BE
:1022F0007047014600208C4A506820F0F0000843E7
:102300005060704701460020874A506820F4E06022
:1023100008435060704701460020834A506820F40B
:10232000605040EAC1005060704729B17E4A527A3D
:1023300002437D4B5A7204E07B4A527A82437A4BC5
:102340005A7270477B49D8310860704701460020B7
:10235000754A506820F4404008435060704700219F
:10236000714A20321170704A82F82010012802D080
:1023700004280AD104E001216B4A2032117005E0E3
:102380000521694A2032117000E000BF00BF70478C
:102390006949086070476449096A0143624A1162E9
:1023A0007047654944390860704730B50021002204
:1023B000002400235C4D6D6805F00C0121B1042957
:1023C00005D0082923D105E05C4D056022E05B4D76
:1023D00005601FE0544D6D6805F47012524D6D6834
:1023E00005F48034022505EB92421CB9544D554347
:1023F00005600BE04C4D6D6805F400351DB1504D86
:102400005543056002E04D4D5543056002E04B4DDC
:10241000056000BF00BF444D6D6805F0F00109097B
:10242000484D6B5C0568DD4045603F4D6D6805F4C7
:10243000E061090A434D6B5C4568DD4085603A4DBB
:102440006D6805F46051C90A3E4D6B5C4568DD401E
:10245000C560354D6D6805F44041890B3A4D6B5CA4
:10246000C568B5FBF3F5056130BD29B12E4A526947
:1024700002432D4B5A6104E02B4A526982432A4B96
:102480005A61704729B1284A92690243264B9A61E2
:1024900004E0254A92698243234B9A61704729B12F
:1024A000214AD2690243204BDA6104E01E4AD26914
:1024B00082431D4BDA61704729B11B4AD26802433F
:1024C000194BDA6004E0184AD2688243164BDA608E
:1024D000704729B1144A12690243134B1A6104E090
:1024E000114A12698243104B1A61704712494039F0
:1024F000086070470F49C86470470B49C87170473E
:102500000948406A40F080700749486270470146B8
:102510000020054A92680A400AB1012000E000202C
:102520007047014988727047001002400000FFF8B0
:10253000FFFFF6FE000042428004424200127A0091
:1025400000093D00360000204600002010B504467A
:10255000FB48844209D101218803FFF7ADFF002128
:102560004FF48040FFF7A8FF32E0F648844209D1DB
:1025700001214804FFF7ADFF00214FF40030FFF7C1
:10258000A8FF25E0F048844209D101218804FFF723
:10259000A0FF00214FF48020FFF79BFF18E0EB48DD
:1025A000844209D10121C804FFF793FF00214FF4B1
:1025B0000020FFF78EFF0BE0E548844208D101219F
:1025C0000805FFF786FF00214FF48010FFF781FF19
:1025D00010BD2DE9F04786B005460E460024A24600
:1025E00000BFA1460027B08900B100BF2F462C8A4A
:1025F0004CF6FF700440F08804432C82AC894EF600
:10260000F3100440B08831890843718908430443BA
:10261000AC81AC8A4FF6FF400440B0890443AC82E1
:1026200001A8FFF7C2FEC648874202D1DDF810A01C
:1026300001E0DDF80CA0A88900F4004040B10AEBED
:10264000CA0000EB0A1031684900B0FBF1F807E05E
:102650000AEBCA0000EB0A1031688900B0FBF1F800
:102660006420B8FBF0F004012009642101FB10890B
:10267000A88900F4004040B1322000EBC900B0FB53
:10268000F1F000F00700044308E0322000EB0910ED
:102690006421B0FBF1F000F00F0004432C8106B080
:1026A000BDE8F0874FF41651016000218180C180A0
:1026B00001810C21418100218181704710B50246C2
:1026C0000020108A4FF2FF0318400B884C882343E8
:1026D0008C882343CC8823431843108210BD0021EB
:1026E000018041808180C180704721B1828942F49C
:1026F0000052828104E082894DF6FF731A40828184
:102700007047F0B50346002400260025002040F65F
:102710006A17B94200D100BF1846C1F3421401F054
:102720001F06012707FA06F5012C01D10C3004E041
:10273000022C01D1103000E014301AB107682F4389
:10274000076002E00768AF430760F0BD1AB1838AF3
:102750000B43838202E0838A8B4383827047028A21
:102760004FF6F0731A400282028A0A4302827047CF
:1027700082894FF2FF731A40828182890A438281E3
:10278000704721B1828942F00202828104E082898D
:102790004FF6FD731A4082817047028A4FF6DF734D
:1027A0001A400282028A0A430282704721B1028AD9
:1027B00042F48042028204E0028A4BF6FF731A4020
:1027C00002827047C1F30802828070470146888800
:1027D000C0F308007047818941F001018181704791
:1027E000028BD2B20283028B42EA0122028370473B
:1027F000028B02F47F420283028B0A4302837047FA
:1028000021B1828A42F02002828204E0828A4FF65D
:10281000DF731A408282704721B1828A42F010022F
:10282000828204E0828A4FF6EF731A4082827047F8
:1028300021B1828A42F00802828204E0828A4FF645
:10284000F7731A408282704721B1828942F40042B4
:10285000828103E08289C2F30E028281704721B136
:10286000828A42F40062828204E0828A4FF2FF731D
:102870001A4082827047828A4FF6FB731A40828226
:10288000828A0A438282704721B1828A42F0020220
:10289000828204E0828A4FF6FD731A40828270477A
:1028A00002460020B1F5007F00D100BF13880B4025
:1028B0000BB1012000E00020704701F40072B2F576
:1028C000007F00D100BFCA430280704770B5024646
:1028D000002400230025002040F66A16B14200D1F2
:1028E00000BFC1F3421501F01F03012606FA03F3EE
:1028F000012D02D19689334006E0022D02D1168ABD
:10290000334001E0968A33400C12012606FA04F4A3
:102910001688344013B10CB1012000E0002070BDD6
:1029200010B50022002340F66A14A14200D100BF76
:102930000A1201249440A3B2DC43048010BD0000BD
:10294000003801400044004000480040004C004076
:102950000050004031490143314A1160704770B561
:10296000002100230F22C47804B32D4C246804F402
:10297000E064C4F5E064210AC1F10403CA4044786C
:1029800004FA03F18478144021430901254C0678A8
:10299000A155047804F01F050124AC4005786D11A1
:1029A000AD0005F1E025C5F8004109E0047804F028
:1029B0001F050124AC401C4D0678761145F82640D1
:1029C00070BD1A4A0A400243154B1B1F1A6070471C
:1029D00039B1134A121D12680243114B1B1D1A60B4
:1029E00006E00F4A121D126882430D4B1B1D1A6030
:1029F0007047042808D14FF0E021096941F0040133
:102A00004FF0E022116107E04FF0E021096921F069
:102A100004014FF0E0221161704700000000FA0548
:102A20000CED00E000E400E080E100E080FFFF1F2B
:102A3000704700000FB4044910B503AA029800F0D3
:102A400009F910BC5DF814FB300000202DE9F041BD
:102A50000E460446002020622046E168884730B3D5
:102A6000252805D0D4E901219047206A401CF2E7CF
:102A7000E168204600278847050018D0A5F14100ED
:102A8000192802D820354FF40067324629462046DF
:102A90002760FDF787FB40B1012804D0F61D26F022
:102AA00007060836D8E7361DD6E72846DAE7206A53
:102AB000BDE8F0812DE9F041064600241068752933
:102AC000314616A510D0AFF30080002802DA40424C
:102AD00013A507E031688A0701D512A502E049076E
:102AE00004D511A5012401E0AFF3008000210A22E2
:102AF00006F1240709E0B0FBF2FCB0FBF2F302FBA5
:102B00001C00303078541846491C0028F3D1234665
:102B10002A463046BDE8F04100F043B8000000000E
:102B20002D0000002B0000002000000070B50446BE
:102B30000D4621461068AFF300802188090502D5B3
:102B40000F4A7A4402E00E4A7A440E32002104F120
:102B5000240305E000F00F060009965D5E54491C51
:102B60000028F7D120780023000704D5702D02D06B
:102B700009B1022311322046BDE8704000F011B8BF
:102B80007E1D0000704770477047704710B500F019
:102B900073F8006810BD10B5044600F06DF80460CD
:102BA00010BD2DE9F0470D4699469246044600F1C6
:102BB00024080168880604D5E06921F0100121602D
:102BC00000E00120A84201DD471B00E00027A169C9
:102BD0007A1902EB0900081AA0612078C00602D415
:102BE0002046AFF30080002608E0D4E901211AF85E
:102BF00006009047206A401C761C20624E45F4DB9C
:102C00002078C0060AD52046AFF3008006E0D4E95C
:102C1000012130209047206A401C2062381EA7F115
:102C20000107F4DC07E0D4E9012118F8050090471A
:102C3000206A401C2062281EA5F10105F3DC204615
:102C4000AFF300802078000602D50220BDE8F087AF
:102C50000120FBE7074B70B50D467B4400F015F8EB
:102C60000446284600F024F810B14FF0FF3070BD44
:102C7000204670BD75F0FFFF00487047140100202A
:102C800001694A1C02610878704700B58FB0CDE930
:102C900001310021059105497944CDE90310114620
:102CA0006846FFF7D3FE0FB000BD0000E5FFFFFF51
:102CB000007B00F08000704700487047140100203E
:102CC0007546FFF7F9FFAE4605006946534620F00A
:102CD0000700854618B020B5FFF7A6F8BDE82040EC
:102CE0004FF000064FF000074FF000084FF0000BC8
:102CF00021F00701AC46ACE8C009ACE8C009ACE87B
:102D0000C009ACE8C0098D4670470446AFF30080A7
:102D10002046FDF75CFA490050EAC12018BF0420A4
:102D20004A0D18BF40F0010040F2FF72B2EB515F54
:102D300008BF40F00200012808BF052070472DE9B8
:102D4000F0414F1E00EBC7010446D1E900011546D2
:102D50001E4637F006020DD02A46334601F02AFA05
:102D60007F1E04EBC703D3E9002300F00FFF37F009
:102D70000602F1D1022F25D0042F13D0062F18BF41
:102D8000BDE8F0812A46334601F014FAD4E90A235B
:102D900000F0FCFE2A46334601F00CFAD4E9082381
:102DA00000F0F4FE2A46334601F004FAD4E9062383
:102DB00000F0ECFE2A46334601F0FCF9D4E9042386
:102DC00000F0E4FE2A46334601F0F4F9D4E9022388
:102DD00000F0DCFE2A46334601F0ECF9D4E900238A
:102DE000BDE8F04100F0D2BE002213461046014972
:102DF00000F088BF0000F03F012201F01DBD00F08F
:102E0000C5BE002213461046114600F07BBF40F2BB
:102E1000013200204FF0E04101F00EBD024A0020D7
:102E2000110701F009BD000001FDFFFF2DE9F04D84
:102E3000C84A002490B0914205DA21F00043934241
:102E400001D805D120B110B0BDE8F04DFFF7D4BFD7
:102E5000B1F5801F1BDA53EA000209D0002911DA0C
:102E60000120FFF798FE10B0BDE8F04DFFF7C9BF95
:102E70000220FFF790FEFFF7B7FF10B081F000418E
:102E8000BDE8F08D6FF03504362201F0D5FC04EB7F
:102E90002152C1F31308B049A2F2FF33414401F4B7
:102EA000801282F07F6103EB225281F04051009248
:102EB00041EA08010022A94B01F0A2FB044608F1F7
:102EC0000200A74EC0F313000D467E44032867D2CC
:102ED000D6E90023204601F06DF81ED100980028A5
:102EE00002BFD6E9000110B0BDE8F08D01F0FBF89B
:102EF00007460C469B4A9C4B01F05CF906460D4682
:102F00009A4A9B4B3846214601F054F910B032469C
:102F10002B46BDE8F04D00F039BE4FF05532954BD1
:102F20002046294601F046F90022934B01F076FA3B
:102F300006460F4622462B461046194601F03AF93E
:102F400032463B4601F036F9064600980F46F0B18E
:102F500001F0C9F880468A46824A834B01F02AF97B
:102F600032463B4601F05AFA22462B4601F048FB16
:102F700005460C467D4A7E4B4046514601F01AF903
:102F800010B02A462346BDE8F04D01F039BB0B4690
:102F900010B0324620462946BDE8F04D01F030BB66
:102FA00000224FF08043204600F0F0FD02460B4621
:102FB0002046294600F0A6FE06460F46009801F07E
:102FC00092F8CDE9040132463B461046394601F0FD
:102FD000F1F80C9069480C9A4044019009910B4615
:102FE000104601F0E7F88246024665488B46C8F174
:102FF00051080B4608F5D72803217844FFF79FFEB8
:1030000052465B4601F0D6F80A905E480D91524652
:103010005B4604217844FFF792FE099B0C9A01F06D
:10302000C9F8844601980D9B40EA080860460A9A50
:1030300000F0ACFD83460891B8F1000F4EDD4FF073
:10304000FF322046294601F0F7FB22462B4601F0CD
:10305000B1F8804600988A4660B3DDE90401414A30
:10306000414B01F0A7F8099100905A46404651465D
:10307000089B00F08BFD32463B4601F09BF8099B14
:10308000009A00F083FD4246534601F0C7F92246FC
:103090002B4601F0B5FA04460D46DDE90401334A3A
:1030A000334B01F087F810B022462B46BDE8F04DB7
:1030B00001F0A6BA5A464046089B00F067FD32462A
:1030C0003B4601F077F84246534601F0A7F910B0AD
:1030D00022462B46BDE8F04D01F0A0B9009840B360
:1030E000DDE904011F4A204B01F064F880468A465E
:1030F0005A4620462946089B01F082FA32463B4652
:1031000001F058F84246534601F07AFA22462B461F
:1031100001F076FA04460D46DDE90401134A144B2A
:1031200001F048F810B022462B46BDE8F04D01F002
:1031300067BA0B465A462046294601F061FA3246E4
:103140003B4601F037F810B022462B46BDE8F04D63
:1031500001F064B90000F07F645F09000000F03FF7
:10316000E21A0000763C7935EF39EA3D0000E0FED6
:10317000422EE63F5555D53F0000E03F86EBF9FF74
:10318000F2180000F01800002DE9F04D16460F4629
:1031900094B01C4621F0004123F00042002814BFE7
:1031A0004FF0010C4FF0000C0CEB470CFE4B0CEBFE
:1031B00003054FEA630C65452BD3350018BF012585
:1031C00005EB44051D44F94B9D4222D3F84B52EACE
:1031D000060C02D09F4205D148B914B00020194610
:1031E000BDE8F08D002808BF4FF0000C01D04FF073
:1031F000010C0CEB470313F5001F0AD8002E14BF77
:103200004FF0010C4FF0000C0CEB440313F5001FC2
:1032100007D914B0324623463946BDE8F04DFFF7D2
:10322000EEBDDFF890834FF0000A002FB8BF424593
:1032300023DAE14B9A42A8BF4FF0020A1DDADC4BB9
:1032400093421ADCDD4B03EB2253142B08DDC3F150
:10325000340C26FA0CF303FA0CFCB4450DD108E04B
:103260005EB9C3F1140C22FA0CF303FA0CFC94457A
:1032700003D103F00103C3F1020A51EA00031BD199
:10328000002C19DA002F18BFBAF1020F02D0BAF1E0
:10329000010F07D00220FFF77EFC14B0BDE8F04D0F
:1032A000FFF7A2BD0220FFF776FCFFF79DFD14B0EB
:1032B00081F00041BDE8F08D330070D1424525D149
:1032C00007F1804212F5801201BF00280020B849A2
:1032D00014B008BFBDE8F08DB548884207DC002C6B
:1032E000A1BF1846214614B0BDE8F08D07E0002CC0
:1032F000BFBF184684F0004114B0BDE8F08DB0495E
:103300007944D1E9000114B0BDE8F08DDFF8A0C226
:1033100062452AD1002C24DA39B1414517D1002861
:1033200004BF002002461CD106E040B10220FFF796
:1033300032FCFFF76CFD0A46394600F0D7BA9D4AC9
:10334000394614B0002062F31E01BDE8F08D08DAA2
:1033500014B03B46BDE8F04D02460020614600F047
:10336000D1BC14B03946BDE8F08D414517DAB4F14F
:10337000804F0CD0A4F10053B3F1FF530FD13B1E8B
:103380000DDB14B01946BDE8F04D00F0D9BB3B464B
:1033900014B00246BDE8F04D194600F00BBF050021
:1033A00027F000433AD1E1B1414537D1002F06DD86
:1033B000002CA1BF0020414614B0BDE8F08D002FC5
:1033C00001DD002C1FDB002F16DA002C14DBBAF114
:1033D000010F4FF0000014BF76497A4914B0BDE8E0
:1033E000F08DBAF1020F18BF002F0CD0BAF1010F07
:1033F00009D1002F07DA0BE0002FB8BF002C0DDA3F
:10340000BAF1010F04D0002014B00146BDE8F08DE0
:1034100014B000204FF00041BDE8F08D4FF00108DE
:1034200008EBE77CCDF814C05CEA0A0C0DD0DFF89D
:1034300098C162457EDDDFF894C1654B624512DDBF
:103440008B420ADB002C18DB23E00120FFF7A3FBF3
:1034500014B0BDE8F04DFFF7D4BC554A8A4202DCF7
:10346000002C0ADC15E0994202DA002C11DA04E0A3
:103470004F4B994219DD002C0BDD0220FFF78BFB2F
:10348000FFF7C5FC4B4A14B061F31E021146BDE8BC
:10349000F08D0220FFF77FFBFFF7C0FC444A14B019
:1034A00061F31E021146BDE8F08D0022394601F09D
:1034B000A7F807460D466FF0010201F0BDF94FF085
:1034C0005532444B00F0AAFF3A462B4600F072FEFC
:1034D0000022414B00F0A2FF80468B463A462B4625
:1034E0001046194600F066FE42465B4600F062FE5A
:1034F00088460E904FF0C042384B3846294600F0BF
:1035000059FE83460091364A344B41460E9800F0EE
:1035100051FE80460191334A334B3846294600F02C
:1035200049FE4246019B01F06BF80D4602460B46F0
:103530000C9000E011E05846009900F027FB0027AE
:1035400088465A463846009B01F05AF82B460C9A9A
:1035500000F064FF024600F079B90020B1F5801F49
:1035600007DA35222846194601F066F905466FF05C
:10357000340000EB2150A0F2FF300190C1F31300A2
:1035800040F07F6141F04051029118498842D8BF14
:103590004FF0000B35DD16498142C8BF4FF0010BDB
:1035A0002FDC4FF0000B25E0FFFF1F00FFFF0F0097
:1035B0000000F03F0000F07F0000404301FCFFFFEF
:1035C000AC1600000000F0FF0000E0410000F043F6
:1035D000FFFFEF3F5555D53F0000E03F4715F73F50
:1035E000FE822B6544DF5DF80BAE543E8E980300DF
:1035F0007AB60B000198401C01900298A0F580104B
:103600000290FF480299784400EBCB000991D0E981
:10361000002328460B93129200F0F2FF00910A90CB
:1036200028460B9B129A099900F0B0FA02460B4605
:103630000020F44900F066FBCDE90C010B46024680
:1036400000990A9800F0B6FD0690EF4888460027DA
:1036500078440299006810904FF0005040EA6100F1
:1036600000EB8B4000F5002102910B9B129A109801
:1036700000F0C6FF2A46099B00F0D0FE3A464346BA
:1036800000F098FD0891129038464146029B109A2E
:1036900000F090FD009B0A9A00F0C0FE089B129A71
:1036A00000F0AEFFDDE90C2300F084FD0B91069ADB
:1036B000129043461046194600F07CFD054602462E
:1036C000D2480B460A9106217844FFF738FB0A9B43
:1036D0002A46089102901046194600F06BFD089B9F
:1036E000029A00F067FD054609914346384619469F
:1036F000069A00F04BFA0B9B129A00F05BFD2A46EB
:10370000099B00F043FACDE908013A4643461046CA
:10371000194600F04FFD0A910022BD4B009000F0C9
:1037200035FADDE9082300F031FA0D463A46B84B88
:10373000384600F065FF0A9B009A00F061FFDDE962
:10374000082300F06BFECDE908013A462B461046EF
:10375000414600F02FFD00910A90DDE90801434643
:10376000069A00F027FD069088462B463A460B99AC
:10377000129800F01FFD4346069A00F007FA8046B3
:103780000B4602460D9100990A9800F0FFF90020BF
:103790000F460546009B0A9A00F032FF42460D9BF9
:1037A00000F03CFE88460E904FF06042994B284650
:1037B000394600F0FFFC02910090974A954B414634
:1037C0000E9800F0F7FC80460391944A944B2846EB
:1037D000394600F0EFFC4246039B00F0D7F9914ACE
:1037E0007A4402EBCB03D3E9002300F0CFF905467E
:1037F0000791019800F077FC0C9003912A46079BF3
:103800000299009800F0C2F9874A7A4402EBCB0390
:10381000D3E900239346019300F0B8F9039B0C9A77
:1038200000F0B4F9002788463846039B0C9A00F054
:10383000E7FE5A46019B00F0E3FE029B009A00F06F
:10384000DFFE2A46079B00F0E9FD024600200690B5
:1038500005986C4DAAF10103184301D1734D0690F0
:1038600000200B4604903046214600F0A3FC82461F
:103870008B46234630461946049A00F0C1FE3A466C
:10388000434600F097FC52465B4600F07FF906463F
:103890008A463A4643462146049800F08BFC04468B
:1038A0000F463246534600F071F9614A8B46914209
:1038B00021DBABEB020353EA000210D122463B4668
:1038C00000F09EFE804603915A4A5B4B30465146BB
:1038D00000F05CF94246039B00F06AFD27D202200B
:1038E000FFF759F9FFF793FA0A46294614B062F335
:1038F0001E01BDE8F08D514B2BF000429A4216D3C9
:103900004F4A0BEB020353EA000208D122463B4622
:1039100000F076FE3246534600F04AFD07D80220FA
:10392000FFF739F9FFF77AFA0A462946DEE72BF066
:1039300000404449444A01EB20514FF000088242C4
:1039400023DA481C4FF4801121FA00F058443F4A12
:10395000C0F30A517A443E4BA1F2FF31CB4020EA3A
:103960000303C0F3130040F4801CC1F1140012687B
:103970002CFA00F8BBF1000FB8BFC8F100082046D0
:10398000394600F03DFE04460F4622463B4630468F
:10399000514600F0FBF84FF0000B5A462D4B5846AD
:1039A000039100F007FC00910A902B4A2B4B5846DC
:1039B000039900F0FFFB0491029022463B465846D3
:1039C000039900F01DFE3246534600F027FD244ABD
:1039D000244B00F0EFFB049B029A00F0D7F8074657
:1039E0008A46009B0A9A00F0D1F804460E46009BD6
:1039F0000A9A00F005FE3A46534600F00FFD33E008
:103A00001E1300000000F03F5C1300008C12000049
:103A10000000084009C7EE3FFD033ADCF5015B14E6
:103A2000E02F3EBE641100002A1100000000F0BF2C
:103A300000009040FE822B654715973C00CC9040DB
:103A400000346F3F01FCFFFF0000E03F5810000012
:103A5000FFFF0F00432EE63F396CA80C615C20BECF
:103A6000EF39FAFE422EE63F0746224633460F91D3
:103A70001046194600F09EFB834602462E488A46B1
:103A80000B4605217844FFF75AF95A46534600F091
:103A900091FB2246334600F0C1FC82468B463A46F3
:103AA000204631460F9B00F085FB3A460F9B00F005
:103AB0006DF80F460A9000224FF080435046594659
:103AC00000F09EFD0391009052465B462046314631
:103AD00000F070FB039B009A00F014F93B460A9A31
:103AE00000F08EFD2246334600F08AFD0022134B83
:103AF00000F094FC0E46044601EB0851081500281E
:103B000010DC42462046314600F096FEFFF703F9EE
:103B1000042808BFFFF782F942462046314600F0EC
:103B20008BFE044606980B4614B022462946BDE893
:103B3000F04D00F03FBB0000000F00000000F03F20
:103B40002DE9F04106460F4600F074FC04000D46D6
:103B500018BF0120284320F00040C0F17F6000F131
:103B6000E040C00F0ED0301C18BF0120384320F0B9
:103B70000040C0F17F6000F1E040C00F04BF0120B1
:103B8000FFF709F820462946BDE8F08110B591EA13
:103B9000030F48BF83F0004300F13A85841A71EBAC
:103BA000030C05D2121943EB0C03001B61EB0C0153
:103BB000DFF824E14FEA1154A4EB135C1EEA430F33
:103BC00018BF9EEA445F73D023EA0E03DCF1200E97
:103BD00021EA045143F4801332D322FA0CFE10EB95
:103BE0000E0023FA0CFE41EB0E01CCF1200E03FA7D
:103BF0000EFE10EB0E0051F10001B1F5801FCCF16B
:103C0000200E32D201EB045112FA0EF2BDE8104040
:103C100058BF7047401C38BF5FEA420218BF704768
:103C2000002814BF20F0010041F100014FEA4103D8
:103C300013F5001F38BF7047A1F1C04100F0B2BBBF
:103C4000012A43EB0302ACF1200CDCF11F0E32BF62
:103C50004FF0000E23FA0CF310EB030041EB04517C
:103C6000B4EB115FD0D0A1EB045101F580114908EC
:103C70005FEA300001EB04510ED350F1000038BF71
:103C800012FA0EFE08D1BDE81040C9E7401C38BF4B
:103C90005FEA4202CAD1C3E7BDE810404FEA4103E0
:103CA00013F5001F38BF7047A1F1C04100F07ABB87
:103CB0009EEA445F08D011EA5E0FBDE8104004BFE1
:103CC00001F0004100207047BDE8104070B500F0E1
:103CD0001BFB00BF64FBBE3E0000E0FF02494FF04B
:103CE000000000F077BD00BF0000F87F491058BF0A
:103CF000C1F140415B1058BFC3F140438B42EFF329
:103D0000008070472DE9C04130B4DFF8A0C23CEA22
:103D1000111418BF3CEA131400F0EC8081EA03058B
:103D20001CEA111444EAD57418BF1CEA131500F0FC
:103D3000C780A4EB05044FF0004545EAC12145EAE0
:103D4000C32341EA505143EA525304F17F7499422C
:103D500004F500344FEAC0204FEAC22208BF904267
:103D600000F09C804FEA13650FF24016765D4FEA33
:103D7000134506FB05F7C7F1807706FB07F74FEA07
:103D8000D737A7FB03687642C8F58038A7FB06CE75
:103D900038BFA8F1010807FB08E64FF0000EA6FBAC
:103DA000028CE6FB03CEDCF1000CCEF1004E38BFF6
:103DB000AEF1010EA6FB0C584FF000074FF00005C6
:103DC000E6FB0E87A1FB08C6A0FB07CE16EB0E068E
:103DD00045F10005E1FB076515F1E04E7EBFA4F556
:103DE00080345FEA46066D4116F1800745F1000513
:103DF0004FEA17274FEA066647EA0567A6F1DE464F
:103E0000B6F1805F4FEA15251FD9384624F0010C22
:103E100005EBC471BCF1FE6F01EB0C1102D8F0BCD4
:103E2000BDE8008124425CBF01F5801E9EEAC47F8C
:103E300002D4F0BCBDE80081244238D4F0BCA1F12A
:103E4000C041BDE8004100F0ADBA4FEAD22242EADB
:103E500043524FEAD323A7FB02864FEAD02040EA21
:103E6000415007FB03661EEA0E0F4FEAD12105FB06
:103E7000026658BFA6EB0056B6EB00564FEA520E4C
:103E80004EEAC37E18EB0E0E56EB530EBDD518EB63
:103E900002085E417F1C55F10005B6E74FF480151E
:103EA0004FF000074FF000064FF00008ADE7F0BC00
:103EB0004FF0000001F1C04101F00041BDE8008178
:103EC00011EA0C1F0CEA131500D00CE013EA0C1FCA
:103ED00000F025804FF00000F0BC81EA030101F002
:103EE0000041BDE80081F0BCBDE8004181EA03016A
:103EF00000F058BAF0BCBDE8004170B500F004FA1B
:103F0000097EFC3E00F007B881EA03014FF0000093
:103F100001F00041704781EA030100F043BAF0BCB0
:103F2000BDE800414FF0000021497047FFFDFBF95B
:103F3000F7F5F4F2F0EEEDEBE9E8E6E4E3E1E0DEDC
:103F4000DDDBDAD8D7D5D4D3D1D0CFCDCCCBCAC84E
:103F5000C7C6C5C4C2C1C0BFBEBDBCBBBAB9B8B775
:103F6000B6B5B4B3B2B1B0AFAEADACABAAA9A8A868
:103F7000A7A6A5A4A3A3A2A1A09F9F9E9D9C9C9B36
:103F80009A999998979796959594939392919190E1
:103F90008F8F8E8E8D8C8C8B8B8A89898888878772
:103FA0008685858484838382828181800000FF07E7
:103FB0000000F87F51EA030C17D41CF5801F58BF8E
:103FC000BCF5801F00F10680994218BF704708BFFA
:103FD0009042704707D711F5801F58BF13F5801F17
:103FE00019D499427047894270471CF5801F08D543
:103FF000BCF5801FF7D58B4218BF704708BF8242BF
:1040000070474FF4001C1CEB410F38BF1CEB430FF3
:1040100001D28B42704770B500F076F992244900C6
:104020004FF000514FF08053FFF760BE4FEA41035D
:104030004FEA5353A3F58063D3F11E03C8BFD3F1F6
:10404000210C0CDD4FF0004242EAC12242EA5052FC
:1040500032FA03FC8CEAE17CACEBE1707047102B88
:10406000C4BF0020704703F5787CBCF1FF3F04D04B
:104070006FF0004282EA2100704770B500F044F909
:104080004992248000207047F2E700004FEA115364
:10409000A3F58063D3F11E03A8BFD3F1200C08DB86
:1040A0004FF0004242EAC12252EA505232FA03F083
:1040B000704709420BD4102BC4BF0020704703F592
:1040C000787CBCF1FF3F05D04FF0FF3070474FF0D8
:1040D0000000704770B500F017F900BF49922480C6
:1040E00000207047F0E710F0004248BF4042B0FAAD
:1040F00080F310FA03F10AD0C3F11D0303F58063C6
:104100004FEA415002EB035202EBD12170474FF0CE
:1041100000007047B0FA80F310FA03F10AD0C3F13F
:104120001D0303F580634FEA41504FEA035202EB4F
:10413000D12170474FF000007047000051EA030C96
:1041400017D41CF5801F58BFBCF5801F00F10680F6
:10415000994218BF704708BF9042704707D711F5C2
:10416000801F58BF13F5801F19D4994270478942A8
:1041700070471CF5801F08D5BCF5801FF7D58B4212
:1041800018BF704708BF824270474FF4001C1CEBF9
:10419000410F38BF1CEB430F01D28B42704770B503
:1041A00000F0B2F8922449004FF000514FF08053D4
:1041B000FFF79CBDDFF848C170B51CEA111E1EBF99
:1041C0001CEA13159EEA0C0F95EA0C0F00F06F80A5
:1041D00081EA030423EA4C134EEAD47E21EA4C110F
:1041E00041F4801143F48013AE44A1FB024CA0FBC8
:1041F0000365AEF17F7E361955EB0C05A1FB034C30
:104200004CF10003A0FB021C16EB0C06654153F1B8
:104210000003094218BF46F0010613F4007F0BD1DA
:104220004FEA03314FEA0530340341EA155140EAC1
:1042300016506FF003020AE04FEAC3214FEAC5208F
:10424000F40241EA555140EA56506FF0020202EB87
:104250002E4201EB025585EACE710AD05FEA440C8A
:1042600018BF24F0004450F1000041F1000120EAA1
:10427000D47040F2FE7C624500D270BDA84214BFEB
:104280004FF080444FF04044002E08BF0024BEF1A0
:10429000806FA8BFA1F1C041BDE8704080F282806C
:1042A0004FF0000001F1C04101F0004170479EEA6B
:1042B0000C0F0CEA131518BF95EA0C0F06D04FF03F
:1042C000000081EA030E0EF0004170BD00F01CF802
:1042D0008900013E00F007B800F009B84FEA430C2E
:1042E0005FEA5C5C08D081EA030100F05BB84FEA4A
:1042F000410C5FEA5C5CF6D14FF000000149704769
:104300000000FF070000F87F0EF1020E2EF0030EF2
:104310005EF8046B364205D4012A43EB030515F51C
:10432000001F12D8012841EB010C1CF5001F0CD80E
:104330000ED14FEAD17C15F5001F0CEB4C0C0CF1A3
:10434000020C08BF4CEBD37C04E04FF0080C01E0FA
:104350004FEAD37C0CEB4C0526FA05F606F007066F
:10436000B6F1040C06D20EEB860CBDE870404CF0A2
:10437000010C6047DFE80CF0090B02024FF000412E
:104380004FF00000A1F5002170BD1946104601282C
:1043900051EB010418BFD4F5001484BF002001F0D4
:1043A000004170BD0808A0F500114FEA31017047C7
:1043B00053EA010C17D41CF5801F58BFBCF5801FB1
:1043C00000F106808B4218BF704708BF82427047D9
:1043D00007D713F5801F58BF11F5801F19D48B42E2
:1043E00070479B4270471CF5801F08D5BCF5801FA5
:1043F000F7D5994218BF704708BF904270474FF4F5
:10440000001C1CEB430F38BF1CEB410F01D299423B
:1044100070470FB40CBC03BCFFF7C1BE91EA030F99
:1044200010B581F000413FF5B9AB83F0004300F0D7
:10443000EFB800002DE9F04101F5801CBCF5001F2C
:10444000C0F2C3804FEA115C21EA0C510CF1FD0C63
:1044500041F480115FEA5C0C0CF5C07C01D3400094
:1044600049413DA4890241EA905187028E0E0A0C0F
:10447000A45D04FB04F602FB06F6C6F14046A4FB6D
:104480000662F60D46EA422606FB06F4A4FB01236B
:104490005242C3F1404338BF5B1EA6FB02420024D8
:1044A000E6FB0324D20B42EA4446A6FB0623A1FB0B
:1044B00002E2A3FB07E4A4184FF0000252F100024D
:1044C000E3FB01426442C2F1404E38BFAEF1010E3F
:1044D000A6FB04234FF00002E6FB0E32A2FB0346CC
:1044E0004FF00004B61954F10004E2FB0264A1FB92
:1044F00006E6A4FB07E816EB08064FF0000858F1A3
:104500000008E4FB01687642C8F1405838BFA8F1C2
:104510000108A2FB06E4A3FB08E52D194FF00004F7
:1045200054F10004E2FB0854A1FB05E6A7FB04E8F4
:1045300018EB06084FF0000656F10006E1FB048672
:1045400018F1200556F10006A809A8F11B08B109C9
:1045500008F03F08B8F10A0F40EA86601CD901EB69
:104560000C51BDE8F08100BFFCF5EEE8E2DDD8D3E8
:10457000CFCBC7C3C0BDB9B6B4B1AEACA9A7A5A3D4
:10458000A19F9D9B9A9896959392908F8D8C8B89E5
:104590008887868584838281A0FB006800FB01F206
:1045A00008EB4208B8EB872807D5341858EB01040C
:1045B000D5D5401C51F10001D1E7341A78EB010444
:1045C000CDD4401E71F10001C9E75FEA4C0C5FEAEF
:1045D0009C5C0DD105D34FF0000001F00041BDE817
:1045E000F081BDE8F04170B5FFF78EFE6DDBFFBED8
:1045F000BDE8F0414FF00000004970470000F87F2F
:1046000010B591EA030F48BF83F000433FF5C6AAF7
:10461000841A71EB030C07D212198CF0004C43EB97
:104620000C03001B61EB0C01DFF8A4E14FEA11540D
:10463000A4EB135C1EEA430F18BF9EEA445F00F030
:10464000B08023EA6E03524221EA0451C3EB6E03A9
:1046500038BF5B1EDCF1200E25D322FA0CFE10EBD6
:104660000E0043FA0CFE41EB0E01CCF1200E03FAD2
:104670000EFE10EB0E0051F10001CCF1200E29D4FA
:1046800012FA0EF201EB0451BDE8104058BF70471A
:10469000401C1CBFB2F1004F704700280CBF491CE2
:1046A00020F00100704712EB020E43EB030218BF2B
:1046B0004FF0010E4EEA4202ACF1200CDCF11E0E6E
:1046C00054D943FA0CFE10EB0E0051F1FF31CCF13E
:1046D0001E0ED5D50EF1010E12FA0EFE404141EB31
:1046E000010101EB445C5FEA5C5C10D910EBDE7009
:1046F00001EB045138BFBEF1004FBDE8104018BFB8
:10470000704700280CBF491C20F00100704730D2D0
:104710004FEAD42C11F5001124F400641BD0B1FA37
:1047200081F20B3AA41AA41ED2F12003914030FA70
:1047300003F31943904001EBCC71002C01EB0451C1
:10474000BDE81040A8BF704701F1C0414FF0000024
:1047500001F000417047B0FA80F310FA03F100D184
:1047600010BDE41A173C4805C90AE4E701EB0451FF
:1047700010BD491001EB0451BDE810404FEA300074
:1047800002E04FF0000170474A0008BF0042F8D035
:10479000B2F5001F28BF704701F000414FF0000044
:1047A00070479EEA445F07D011EA5E0FBDE81040F3
:1047B00004BF002100207047BDE8104070B5FFF72E
:1047C000A3FD00BF40DFF63E83F000411046704776
:1047D0000000E0FF0CF00F03092B08BF082000F0D9
:1047E00059800A2B0BD0082B18BF704708BF1CF04C
:1047F000400F0AD04FF000004FF0000170471CF04E
:10480000400F18BF4FF0004070471CF0100F08D049
:1048100020F0704300F07F4242EAD3014FEA437038
:10482000704700F0604021F07F4242EA000201F050
:104830007F4040EA727070474FF0FF0C4CF4E06C20
:104840001CEA11531CBF9CEA030C9445C2BFDA4218
:1048500001EB02517047002B0DD0BCF1000F0FD0BF
:10486000002A01F00041A4BF41F0E04141F07F6126
:104870004FF00000704701F000414FF0000070471A
:1048800050EA01334FF09B0C18BF4CF0806C7FF462
:1048900025AA70471CF4801F11D01CF4E02F03D010
:1048A0006FEACC31490070474FF04050EFF300827F
:1048B00022F0704242EA000282F3008870474FF013
:1048C00000007047303132333435363738394142A1
:1048D0004344454640305800303132333435363762
:1048E000383961626364656640307800000000001A
:1048F00004FA97999999D93FAF788E1DC571CC3F2D
:104900009FC678D0099AC33F935555555555E53FF5
:10491000599322942449D23FDE03CB966446C73F85
:1049200044523EDF12F1C23F000000000000F03FA1
:10493000000000000000F83F000000000000000040
:104940000000004003B8E23F00000000000000004B
:1049500006D0CF43EBFD4C3E033333333333E33FD9
:10496000FFAB6FDBB66DDB3F4D268F515555D53F05
:1049700001411DA96074D13F65DBC9934A86CD3FD3
:10498000EF4E454A287ECA3F3E5555555555C53FC1
:1049900093BDBE166CC166BF2CDE25AF6A56113FB3
:1049A000F16BD2C541BDBBBED0A4BE726937663EB5
:1049B0000000000000000000D849000800000020AE
:1049C0004C0000006C010008244A00084C00002044
:1049D0002C070000880100080000000010270000DC
:1049E000102700001027000000A24A040000000069
:1049F000000000000102030406070809010000008E
:104A000080380100000000000000000000000000ED
:104A1000000001020304010203040607080902045E
:044A20000608000084
:0400000508000131BD
:00000001FF
